:060000000A128A11122809
:10000800FE00030E83160313C7000408C8000A087D
:10001800C9007F08CA000A168A11422E0A128A11DC
:10002800152883160A128A1500200A128A11EC0074
:100038000A128A1501200A128A11ED000A128A157D
:1000480002200A128A11EE00831790308400B23021
:100058000A168A156E210A128A118313CB3084007E
:10006800EC300A168A156E218312ED01EE01EF01BC
:1000780083010A168A15562A8316B9006930A90021
:1000880001308312E807FF30680784000A168A11D6
:100098000A200A128A118316C00040080319AF2DDE
:1000A8002530400603195C28390884004008A82D2B
:1000B800AD01AE018312680884000A168A110A206D
:1000C8000A128A112E3A031DAF2883162E17013003
:1000D800FF007F088312E8078316BE01BF01831261
:1000E800680884000A168A110A200A128A110A1658
:1000F8008A158A210A128A11031CF2280A30F00094
:100108000030F10083163F08F3003E08F2000A169B
:100118008A15CE220A128A117108BF007008BE0023
:100128008312680884000A168A110A200A128A11A2
:10013800D03E8316A000FF3003180030A10020082D
:10014800BE070318BF0A2108BF070130FF007F0858
:100158008312E80773288316BE01BF012E16F22802
:100168002E150E293E083F040319CB283F08803A74
:10017800FF0080307F02031DC32801303E020318B0
:10018800CB28831603133F08AC003E08AB000130B0
:1001980083160313AB020030031CAC03AC022B0A1A
:1001A80003192C0A031944282A0884008313000819
:1001B800FF00390884007F08831780000130FF00A2
:1001C8007F08AA070130FF007F08B907CB28C03095
:1001D800AA000130AB000030AC00B6280130831211
:1001E800E807FF30680784000A168A110A200A12F5
:1001F8008A118316C000A000A1012108003A031942
:100208000629EB282008003A0319AF2D663A03198E
:10021800B428EB2800302D05A00007302E05A100DA
:10022800200821040319792D2E1E1E290630BE0030
:100238000030BF002908840083130008BA00840A2C
:100248000008BB00840A0008BC00840A0008BD003E
:100258000430FF007F08A9073D08F3003C08F200BE
:100268003B08F1003A08F0000030F7000030F600D3
:100278000030F5000030F4000A168A1123230A1210
:100288008A11031860293D08F3003C08F2003B0876
:10029800F1003A08F0000A168A1576210A128A1126
:1002A8007308BD007208BC007108BB007008BA0072
:1002B8000330AD040030AE04B301B4013D08F300CF
:1002C8003C08F2003B08F1003A08F0000030F70063
:1002D8000030F6000030F5000030F4000A168A15E8
:1002E80065250A128A110318362A03103C0D3D0DA4
:1002F800823EB300FF3003180030B400FF30B3076C
:100308000318B40AFF30B4070330F0000030F100DE
:100318003408F3003308F2000A168A15CE220A12AE
:100328008A117108B4007008B3000A30F600003072
:10033800F7003408F9003308F8000A168A15E4268D
:100348000A128A1177088316B4007608B300B41F1E
:10035800B329FF30B3070318B40AFF30B4073303D7
:10036800FF3A0A128A15D2240A128A113D08831606
:10037800B80083123C088316B70083123B08831623
:10038800B60083123A088316B5003D088312A3000D
:1003980083163C088312A20083163B088312A1002F
:1003A80083163A088312A000831638088312A70020
:1003B800831637088312A600831636088312A50011
:1003C800831635088312A4000A128A15F9210A1225
:1003D8008A1123088316B800831222088316B700EF
:1003E800831221088316B600831220088316B500ED
:1003F8003808F3003708F2003608F1003508F00035
:100408003F30F7008030F6000030F5000030F4008F
:100418000A168A1123230A128A110318192AFF308F
:10042800B3070318B40AFF30352A3808F300370831
:10043800F2003608F1003508F0004130F7002030AE
:10044800F6000030F5000030F4000A168A11232364
:100458000A128A11031C362A0130B3070318B40A9A
:100468000030B4073F08803AFF0080307F02031D48
:100478003F2A0D303E020318752A831603133E08DF
:100488000A128A1542200A128A113D08CF003C0838
:10049800CE003B08CD003A08CC0083163D088312F5
:1004A800D30083163C088312D20083163B088312BC
:1004B800D10083163A088312D0000A128A11B42593
:1004C8000A128A114F088316BD0083124E0883163C
:1004D800BC0083124D088316BB0083124C08831698
:1004E800BA00831603133408803AFF0080307F0275
:1004F800031D802A0A3033020318C12A8316031306
:100508003D08F3003C08F2003B08F1003A08F0000F
:100518000030F7000030F6000030F5000030F4003D
:100528000A168A1565250A128A1103181E2B3D081A
:100538008312D00083163C088312CF0083163B0831
:100548008312CE0083163A088312CD000A168A1148
:10055800FF200A128A1150084F044E044D04031D4F
:100568001E2B83163408803AFF0080307F02031D5B
:10057800BF2A02303302031C1E2B831603133808CC
:10058800F3003708F2003608F1003508F000403073
:10059800F7008930F6007030F5005F30F4000A1675
:1005A8008A1123230A128A110318DC2AF730DD2A5C
:1005B800F830B3070318B40AFF30B40733080A1237
:1005C8008A15D2240A128A113D088316B8008312AC
:1005D8003C088316B70083123B088316B6008312C3
:1005E8003A088316B5003D08F3003C08F2003B08C2
:1005F800F1003A08F0003808F7003708F600360826
:10060800F5003508F4000A168A1157240A128A11CF
:1006180073088316B2007208B1007108B000700840
:10062800AF000030BD000030BC000030BB0000301F
:10063800BA00802B831603133D088312D00083165B
:100648003C088312CF0083163B088312CE00831622
:100658003A088312CD000A168A11FF200A128A115D
:1006680050088316B20083124F088316B100831214
:100678004E088316B00083124D088316AF00320867
:10068800F3003108F2003008F1002F08F0000030C4
:100698000A168A11B6230A128A1173088312E30014
:1006A8007208E2007108E1007008E00083163D0856
:1006B8008312E70083163C088312E60083163B0882
:1006C8008312E50083163A088312E4000A168A1595
:1006D80073220A128A1163088316BD008312620806
:1006E8008316BC00831261088316BB00831260085E
:1006F8008316BA00B301B401C001C00A0A3040062B
:100708000319BF2B4008A00001300310A00DFF3EC5
:10071800031D892B0310200D693E84000A168A11D7
:100728000A200A128A11A1000A168A110A200A123E
:100738008A11A2000A168A110A200A128A11A30035
:100748000A168A110A200A128A11A4002408320201
:10075800031DB82B23083102031DB82B22083002D1
:10076800031DB82B21082F02031CBF2B0130FF00EB
:100778007F08C007822B2D0803390319CC2B3908B1
:1007880084002D30831780000130FF007F08B907EF
:100798000130C002400A03193D2C4008A000013076
:1007A8000310A00DFF3E031DD42B0310200D693E3E
:1007B80084000A168A110A200A128A11F0000A1601
:1007C8008A110A200A128A11F1000A168A110A20CF
:1007D8000A128A11F2000A168A110A200A128A11CC
:1007E800F3003208F7003108F6003008F5002F084A
:1007F800F4000A168A153D270A128A117308B800F0
:100808007208B7007108B6007008B5000030F30030
:100818000030F2000030F1000A30F0003808F7002C
:100828003708F6003608F5003508F4000A168A1568
:1008380041260A128A117308B8007208B7007108B5
:10084800B6007008B500390884003508303EC62B5C
:100858008316031339088400303083178000013071
:10086800FF007F08B907FF30B3070318B40AFF3049
:10087800B4073408803AFF0080307F02031D462CFD
:100888000130330203182C2C831603133F08803AD7
:10089800FF0080307F02031D532C09303E02031CE9
:1008A800592C0830831603135C2C831603133E0857
:1008B800C0004008A000A1012008BE022108031CB6
:1008C800BF03BF0240080319722C390884002E3078
:1008D800831780000130FF007F08B90740080A121B
:1008E8008A15D2240A128A113D088316A800831299
:1008F8003C088316A70083123B088316A6008312C0
:100908003A088316A50028088312A700831627082B
:100918008312A600831626088312A50083162508CD
:100928008312A40083163D088312A30083163C0893
:100938008312A20083163B088312A10083163A088B
:100948008312A0000A128A15F9210A128A112308B3
:10095800D0002208CF002108CE002008CD000A16BA
:100968008A11FF200A128A1150088316B2008312D6
:100978004F088316B10083124E088316B000831205
:100988004D088316AF000130C002400A0319742DC8
:100998004008A00001300310A00DFF3E031DCF2C1E
:1009A8000310200D693E84000A168A110A200A12D3
:1009B8008A11F0000A168A110A200A128A11F10017
:1009C8000A168A110A200A128A11F2000A168A11D6
:1009D8000A200A128A11F3003208F7003108F600DB
:1009E8003008F5002F08F4000A168A153D270A1268
:1009F8008A117308B8007208B7007108B600700849
:100A0800B5000030F3000030F2000030F1000A3089
:100A1800F0003808F7003708F6003608F500350802
:100A2800F4000A168A1541260A128A117308B800BA
:100A38007208B7007108B6007008B500390884005C
:100A48003508303E831780000130FF007F08B90762
:100A58004008A00001300310A00DFF3E031D2F2DFC
:100A68000310200D693E84000A168A110A200A1212
:100A78008A11F0000A168A110A200A128A11F10056
:100A88000A168A110A200A128A11F2000A168A1115
:100A98000A200A128A11F3003208F7003108F6001A
:100AA8003008F5002F08F4000A168A1541260A12A4
:100AB8008A117308B2007208B1007108B00070089A
:100AC800C62C390884003030831780000130FF00BD
:100AD8007F08B907FF30BE070318BF0AFF30BF07FA
:100AE8003E083F0403194428652D3E083F04031DB2
:100AF800892D3208310430042F04031D892D01305B
:100B0800BE070318BF0A0030BF073F08803A803C81
:100B1800031D902D3E084002031C9F2D83160313CE
:100B28003F08803AA00080302002031D9D2D400818
:100B38003E02031C9F2D831603132D080339031946
:100B48004428390884002D30831780000130FF00C5
:100B58007F08B907442839088400831780010800F2
:100B68004F088039DC004F08D4005407DE00CE1B44
:100B78005E145E080319CE2D5E0A031DCB2D0030CE
:100B8800CF000030CE000030CD000030CC00CE17B2
:100B9800CF01D62D0030CF000030CE000030CD0080
:100BA8000030CC0053088039DD005D085C06031D69
:100BB8005C175308D4005407DD00D21B5D145D0890
:100BC8000319F42D5D0A031DF12D0030D300003008
:100BD800D2000030D1000030D000D217D301FC2D54
:100BE8000030D3000030D2000030D1000030D000F7
:100BF8005E085D020318242E5C1F062E8030FF005D
:100C08007F08DC065E08DF005D08DE005F08DD00A7
:100C18004C08DF005008CC005F08D0004D08DF000A
:100C28005108CD005F08D1004E08DF005208CE0001
:100C38005F08D2004F08DF005308CF005F08D300D9
:100C4800DF015D08D400D5015508D7005E085402BD
:100C5800D600031CD7035708803AFF0080307F0274
:100C6800031D382E1A305602031C6B2E83120313F1
:100C78004F084E044D044C040319442E0130452EF0
:100C88000030DF000030CF000030CE000030CD0053
:100C98000030CC005D08DE00712E5F1C5A2E5F0804
:100CA800D4000310540C0138DF005C2E0310DF0C55
:100CB8004C18DF170130D4004F0DCF0CCE0CCD0CE3
:100CC800CC0CD40B602E0130FF007F08DE078312A6
:100CD80003135D085E02031C512E5C1BB02E5E08D8
:100CE800031D7F2E0030CF000030CE000030CD0035
:100CF8000030CC0008005008CC0751080311031835
:100D0800013E031DCD07520803110318013E031DC0
:100D1800CE07530803110318013E031DCF074F1CCC
:100D2800522F5F1C9E2E5F08D4000310540C01380C
:100D3800DF00A02E0310DF0C4C18DF170130D400A1
:100D48004F0DCF0CCE0CCD0CCC0CD40BA42E0130F7
:100D5800FF007F08DE07522F4F08803AFF00530834
:100D6800803A7F02031DC22E52084E02031DC22E76
:100D780051084D02031DC22E50084C0203181A2FA9
:100D8800FF30D400FF30D500FF30D600FF30D70049
:100D98005008D8005108D9005208DA005308DB007F
:100DA8004C08D8024D08031C4D0FDB2EDC2ED9024F
:100DB8004E08031C4E0FE12EE22EDA024F08031CE8
:100DC8004F0FE72EE82EDB025808D40759080318FE
:100DD800590FEF2EF02ED5075A0803185A0FF52E83
:100DE800F62ED6075B0803185B0AD7075708CF000B
:100DF8005608CE005508CD005408CC008030FF00BE
:100E08007F08DC06DF09DF0A5F08031D282F013091
:100E1800CC07003003180130CD070030031801302B
:100E2800CE07003003180130CF07282F5008CC0216
:100E38005108031C510FCD025208031C520FCE0259
:100E48005308031C530FCF024F084E044D044C04A3
:100E5800031D502F5F08031D502F0030CF000030B6
:100E6800CE000030CD000030CC0008000130D400A6
:100E78000310CC0DCD0DCE0DCF0DD40B3C2FDF1BA9
:100E88004C145F1C492F03144A2F0310DF0D5E0812
:100E98000319502F0130DE02CE1F3A2FDD01DF1F6C
:100EA8005D2F5F087F3903194C185B2F5D2FDD011B
:100EB800DD0A5D080319902F0130CC0700300318B4
:100EC8000130CD07003003180130CE070030031879
:100ED8000130CF074F1C902F4C08D4004D08D50087
:100EE8004E08D6004F08D7000130D800570DD70C50
:100EF800D60CD50CD40CD80B7A2F5708CF0056082F
:100F0800CE005508CD005408CC005E0A0319902F76
:100F18000130FF007F08DE075E0A031D5E08031D1F
:100F2800A02F0030CF000030CE000030CD000030C0
:100F3800CC005E080319DC015E1CA42FCE17A82F75
:100F48007F30FF007F08CE055E08D4000310540CE4
:100F5800CF00DC1F0800CF170800F500FF30FA00AB
:100F6800FF30FB00F601F7017008F200F301730887
:100F78007702031DC12F720876020318FA2F76082C
:100F88007507F2007208840083130008F300F40167
:100F98007308FA067408FB060830F8000030F900F8
:100FA8007A1CE22F01300310FB0CFA0CFF3E031DE4
:100FB800D72F0130FA06A030FB06E92F01300310C5
:100FC800FB0CFA0CFF3E031DE32F0130F802003042
:100FD800031CF903F90278087904031DD42F0130A2
:100FE800F6070318F70A0030F707B82F7B08F10057
:060FF8007A08F000080079
:101000000034F0344134F6007603031D23287408BD
:101010007F3EF9007908F50004300310F50CFF3E1F
:10102000031D0D287508F80079080F39F7007808B6
:101030000A168A15CE210A128A1577080A168A1509
:10104000CE210A128A1502307606031D08007408A4
:10105000BF3EF9007908F50004300310F50CFF3E9F
:10106000031D2D287508F80079080F39F700780856
:101070000A168A15CE210A128A1577080A168A15C9
:10108000CE2108008312CB006E304B02031C2629B0
:101090003F30A3000030A2000030A1000030A000CB
:1010A0006430F6004B080A168A15EF220A128A15D8
:1010B000BE0001300310BE0DFF3E031D5A28031071
:1010C0003E0D7D3E84000A168A110A200A128A15F6
:1010D000BF000A168A110A200A128A15C0000A16D1
:1010E0008A110A200A128A15C1000A168A110A20DA
:1010F0000A128A15C2004208A7004108A60040084B
:10110000A5003F08A4000A128A15F9210A128A15BF
:101110002308CA002208C9002108C8002008C70007
:101120000A30F6006430F0004B080A168A15AF2228
:101130000A128A150A168A15EF220A128A15BE00AB
:1011400001300310BE0DFF3E031DA12803103E0D0C
:10115000593E84000A168A110A200A128A15BF0015
:101160000A168A110A200A128A15C0000A168A1164
:101170000A200A128A15C1000A168A110A200A12C8
:101180008A15C2004208A3004108A2004008A1003D
:101190003F08A0004A08A7004908A6004808A50083
:1011A0004708A4000A128A15F9210A128A15230891
:1011B000C6002208C5002108C4002008C3000A3068
:1011C000F0004B080A168A15AF220A128A15BE00D3
:1011D00001300310BE0DFF3E031DE92803103E0D34
:1011E000353E84000A168A110A200A128A15BF00A9
:1011F0000A168A110A200A128A15C0000A168A11D4
:101200000A200A128A15C1000A168A110A200A1237
:101210008A15C2004208A3004108A2004008A100AC
:101220003F08A0004608A7004508A6004408A500FE
:101230004308A4000A128A15F9212308BD002208D8
:10124000BC002108BB002008BA0008000B304B028C
:10125000031CB9293F30A3000030A2000030A100D8
:101260000030A0000A30F6004B080A168A15EF225B
:101270000A128A15BE0001300310BE0DFF3E031D89
:101280003C2903103E0D593E84000A168A110A209B
:101290000A128A15BF000A168A110A200A128A1534
:1012A000C0000A168A110A200A128A15C1000A16FD
:1012B0008A110A200A128A15C2004208A7004108B2
:1012C000A6004008A5003F08A4000A128A15F921CB
:1012D0000A128A152308CA002208C9002108C8007A
:1012E0002008C7000A30F0004B080A168A15AF2202
:1012F0000A128A15BE0001300310BE0DFF3E031D09
:101300007C2903103E0D353E84000A168A110A20FE
:101310000A128A15BF000A168A110A200A128A15B3
:10132000C0000A168A110A200A128A15C1000A167C
:101330008A110A200A128A15C2004208A300410835
:10134000A2004008A1003F08A0004A08A7004908E1
:10135000A6004808A5004708A4000A128A15F9212A
:101360002308BD002208BC002108BB002008BA00E9
:1013700008003F30A3000030A2000030A100003080
:10138000A0004B08BE0001300310BE0DFF3E031D40
:10139000C42903103E0D353E84000A168A110A2026
:1013A0000A128A15BF000A168A110A200A128A1523
:1013B000C0000A168A110A200A128A15C1000A16EC
:1013C0008A110A200A128A15C2004208A7004108A1
:1013D000A6004008A5003F08A4000A128A15F921BA
:1013E0002308BD002208BC002108BB002008BA0069
:1013F000080023088039AD002308A8002807B3009F
:10140000A21B331433080319122A330A031D102AAE
:101410000030A3000030A2000030A1000030A00086
:10142000A2171A2A0030A3000030A2000030A10049
:101430000030A00027088039FF007F08AD0627088C
:10144000A8002807AE00A61B2E142E080319352A63
:101450002E0A031D332A0030A7000030A6000030FA
:10146000A5000030A400A6173D2A0030A7000030D8
:10147000A6000030A5000030A4002E08031D33088C
:10148000031D4B2A0030A3000030A2000030A10051
:101490000030A00008002008F00026080A168A156F
:1014A00010230A128A157108B9007008B8003808AC
:1014B000A800A901AA01AB012B08B2002A08B100BB
:1014C0002908B0002808AF003908A800A901AA011E
:1014D000AB012B08B7002A08B6002908B500280878
:1014E000B4002108F00025080A168A1510230A12F4
:1014F0008A157108B9007008B8003808A800A90159
:10150000AA01AB012808AF07290803110318013EFF
:10151000031DB0072A0803110318013E031DB1077C
:101520002B0803110318013E031DB2073908A80058
:10153000A901AA01AB012808B4072908031103185F
:10154000013E031DB5072A0803110318013E031DC0
:10155000B6072B0803110318013E031DB707220825
:10156000F00024080A168A1510230A128A15710839
:10157000B9007008B8003808A800A901AA01AB0199
:101580002808AF07290803110318013E031DB007FF
:101590002A0803110318013E031DB1072B0803118C
:1015A0000318013E031DB2073908A800A901AA01CA
:1015B000AB012808B407290803110318013E031DD5
:1015C000B5072A0803110318013E031DB6072B08AF
:1015D00003110318013E031DB7070830A8000310CC
:1015E000AF0DB00DB10DB20DA80BEF2A2108F00020
:1015F00024080A168A1510230A128A157108B900E0
:101600007008B8003808A8003908A900AA01AB0181
:101610002808AF07290803110318013E031DB0076E
:101620002A0803110318013E031DB1072B080311FB
:101630000318013E031DB2072008F00025080A1612
:101640008A1510230A128A157108B9007008B800AB
:101650003808A8003908A900AA01AB012808AF077B
:10166000290803110318013E031DB0072A080311BE
:101670000318013E031DB1072B0803110318013E97
:10168000031DB2070830A8000310AF0DB00DB10D57
:10169000B20DA80B442B2008F00024080A168A1566
:1016A00010230A128A157108B9007008B8003808AA
:1016B000A8003908A900AA01AB012808AF0729082A
:1016C00003110318013E031DB0072A080311031874
:1016D000013E031DB1072B0803110318013E031D32
:1016E000B2072108F00026080A168A1510230A12EC
:1016F0008A157108B9007008B8003808A8003908C0
:10170000A900AA01AB012808B4072908031103188E
:10171000013E031DB5072A0803110318013E031DEE
:10172000B6072B0803110318013E031DB707220853
:10173000F00025080A168A1510230A128A15710866
:10174000B9007008B8003808A8003908A900AA0133
:10175000AB012808B407290803110318013E031D33
:10176000B5072A0803110318013E031DB6072B080D
:1017700003110318013E031DB7072208F0002608D5
:101780000A168A1510230A128A157108B900700802
:10179000B8003808A8003908A900AA01AB01083030
:1017A0000310A80DA90DAA0DAB0DFF3E031DD02BF4
:1017B0002808B407290803110318013E031DB507C3
:1017C0002A0803110318013E031DB6072B08031155
:1017D0000318013E031DB7073208A800A901AA019A
:1017E000AB012808B407290803110318013E031DA3
:1017F000B5072A0803110318013E031DB6072B087D
:1018000003110318013E031DB7070830A800031099
:10181000AF0DB00DB10DB20DA80B072C33082E077C
:10182000A800A901A90D2808823EB80029080318BC
:10183000013EFF3EB900B61B382C0130A800031052
:10184000B40DB50DB60DB70DA80B1F2CB21B34147B
:101850000130A8000310AF0DB00DB10DB20DA80BF3
:101860002A2CFF30B8070318B90AFF30B9071B2C20
:10187000AE01B21F512CFF302F05A800FF303005FC
:10188000A900FF303105AA007F303205AB002B08DC
:101890002A0429042804031934184F2C512CAE01B2
:1018A000AE0A2E080319832C0130B4070030031848
:1018B0000130B507003003180130B60700300318B7
:1018C0000130B707371C832C3408A8003508A9005D
:1018D0003608AA003708AB000130AC002B0DAB0C6A
:1018E000AA0CA90CA80CAC0B6E2C2B08B7002A086C
:1018F000B6002908B5002808B4000130B80703185D
:10190000B90A0030B9073908803AFF0080307F02F9
:10191000031D8C2CFF303802031C992C7F3083125E
:101920000313B7008030B6000030B5000030B400BB
:10193000C52C831203133908803AFF0080307F02E0
:10194000031DA42C013038020318B22C003083127E
:101950000313B7000030B6000030B5000030B4000B
:10196000AD01C52C831203133808B300FF30B40552
:10197000FF30B5057F30B6050030B7053318B61710
:101980003308A8000310280CB7002D08FF007F08BB
:10199000B7043708A3003608A2003508A1003408B0
:1019A000A00008008312CC00CC1F6C2ECC09CC0AFE
:1019B0004C08803A123E031CBB2D0A30F600003062
:1019C000F7004C08F200F301F21BF3036430F0005F
:1019D0000030F1000A168A15F6250A128A157108D8
:1019E000F9007008F8000A168A15E4260A128A150A
:1019F00076088312BE0001300310BE0DFF3E031DAA
:101A0000FC2C03103E0D593E84000A168A110A2050
:101A10000A128A15BF000A168A110A200A128A15AC
:101A2000C0000A168A110A200A128A15C1000A1675
:101A30008A110A200A128A15C2004208A30041082E
:101A4000A2004008A1003F08A0006430F60000306A
:101A5000F7004C08F800F901F81BF9030A168A157B
:101A6000E4260A128A1576088312C3000130031097
:101A7000C30DFF3E031D372D0310430D7D3E840033
:101A80000A168A110A200A128A15C4000A168A1137
:101A90000A200A128A15C5000A168A110A200A129B
:101AA0008A15C6000A168A110A200A128A15C7006A
:101AB0004708A7004608A6004508A5004408A4005A
:101AC0000A128A15F9210A128A152308CB00220866
:101AD000CA002108C9002008C8000A30F000003000
:101AE000F1004C08F200F301F21BF3030A168A1509
:101AF000F6250A128A157008BE0001300310BE0DCB
:101B0000FF3E031D7E2D03103E0D353E84000A1658
:101B10008A110A200A128A15BF000A168A110A20A1
:101B20000A128A15C0000A168A110A200A128A159A
:101B3000C1000A168A110A200A128A15C200420838
:101B4000A3004108A2004008A1003F08A0004B08E4
:101B5000A7004A08A6004908A5004808A4000A12E0
:101B60008A15F9212308BD002208BC002108BB000A
:101B70002008BA0008004C08803A753E031C412E2C
:101B80000A30F0000030F1004C08F200F301F21BC3
:101B9000F3030A168A15F6250A128A157008BE0084
:101BA00001300310BE0DFF3E031DD12D03103E0D6D
:101BB000353E84000A168A110A200A128A15BF00CF
:101BC0000A168A110A200A128A15C0000A168A11FA
:101BD0000A200A128A15C1000A168A110A200A125E
:101BE0008A15C2004208A3004108A2004008A100D3
:101BF0003F08A0000A30F6000030F7004C08F8005B
:101C0000F901F81BF9030A168A15E4260A128A1547
:101C100076088312C30001300310C30DFF3E031D7D
:101C20000C2E0310430D593E84000A168A110A2017
:101C30000A128A15C4000A168A110A200A128A1585
:101C4000C5000A168A110A200A128A15C6000A1649
:101C50008A110A200A128A15C7004708A7004608F9
:101C6000A6004508A5004408A4000A128A15F92117
:101C70002308BD002208BC002108BB002008BA00D0
:101C800008004C08BE0001300310BE0DFF3E031DCE
:101C9000442E03103E0D353E84000A168A110A2098
:101CA0000A128A15BF000A168A110A200A128A151A
:101CB000C0000A168A110A200A128A15C1000A16E3
:101CC0008A110A20C2004208BD004108BC00400839
:101CD000BB003F08BA0008004C08803A123E031CC3
:101CE0004F2F0A30F6000030F7004C08F200F301E5
:101CF000F21BF3036430F0000030F1000A168A157D
:101D0000F6250A128A157108F9007008F8000A16FB
:101D10008A15E4260A128A1576088312BE0001305D
:101D20000310BE0DFF3E031D902E03103E0D253EF9
:101D300084000A168A110A200A128A15BF000A16A0
:101D40008A110A200A128A15C0000A168A110A206E
:101D50000A128A15C1000A168A110A200A128A1567
:101D6000C2004208A3004108A2004008A1003F08A9
:101D7000A0006430F6000030F7004C08F800F901CC
:101D8000F81BF9030A168A15E4260A128A15760842
:101D90008312C30001300310C30DFF3E031DCB2E81
:101DA0000310430D493E84000A168A110A200A12C4
:101DB0008A15C4000A168A110A200A128A15C5005B
:101DC0000A168A110A200A128A15C6000A168A11F2
:101DD0000A200A128A15C7004708A7004608A6006D
:101DE0004508A5004408A4000A128A15F9210A1220
:101DF0008A152308CB002208CA002108C900200840
:101E0000C8000A30F0000030F1004C08F200F30185
:101E1000F21BF3030A168A15F6250A128A157008B2
:101E2000BE0001300310BE0DFF3E031D122F031034
:101E30003E0D013E84000A168A110A200A128A15F4
:101E4000BF000A168A110A200A128A15C0000A1653
:101E50008A110A200A128A15C1000A168A110A205C
:101E60000A128A15C2004208A3004108A2004008D5
:101E7000A1003F08A0004B08A7004A08A600490897
:101E8000A5004808A4000A128A15F9212308BD00FC
:101E90002208BC002108BB002008BA0008004C083A
:101EA000803A753E031CD52F0A30F0000030F10057
:101EB0004C08F200F301F21BF3030A168A15F6250B
:101EC0000A128A157008BE0001300310BE0DFF3ED5
:101ED000031D652F03103E0D013E84000A168A1172
:101EE0000A200A128A15BF000A168A110A200A124D
:101EF0008A15C0000A168A110A200A128A15C10022
:101F00000A168A110A200A128A15C2004208A30082
:101F10004108A2004008A1003F08A0000A30F600D6
:101F20000030F7004C08F800F901F81BF9030A1615
:101F30008A15E4260A128A1576088312C300013036
:101F40000310C30DFF3E031DA02F0310430D253EBC
:101F500084000A168A110A200A128A15C4000A1679
:101F60008A110A200A128A15C5000A168A110A2047
:101F70000A128A15C6000A168A110A200A128A1540
:101F8000C7004708A7004608A6004508A500440862
:101F9000A4000A128A15F9212308BD002208BC00FA
:101FA0002108BB002008BA0008004C08BE00013020
:101FB0000310BE0DFF3E031DD82F03103E0D013E42
:101FC00084000A168A110A200A128A15BF000A160E
:101FD0008A110A200A128A15C0000A168A110A20DC
:101FE0000A128A15C1000A168A110A20C200420884
:101FF000BD004108BC004008BB003F08BA00080013
:10200000FF1B0A2883137F1883170008840A03190B
:10201000FF0A080010308A000408840A820700348E
:102020000034003480343F340034003420344134F0
:1020300000340034C8344234003400347A34443438
:10204000003440341C34463400345034C3344734F4
:1020500000342434743449348034963418344B3486
:102060002034BC34BE344C3428346B346E344E349B
:10207000F934023415345034EC347834AD346034EF
:10208000CA34F234493471340034003480343F347B
:10209000CD34CC34CC343D340A34D73423343C34BE
:1020A0006F34123483343A341734B734D13438347B
:1020B000AC34C53427343734BD3437348634353402
:1020C0009534BF34D63433347734CC342B34323473
:1020D0005F34703489343034FF34E634DB342E34EA
:1020E0000834E5343C341E3460344234A2340D34B8
:1020F00001340034003400340A3400340034003435
:102100006434003400340034E834033400340034E0
:102110001034273400340034A034863401340034C1
:10212000403442340F3400348034963498340034D0
:102130000034E134F53405340034CA349A343B3485
:10214000483475346D34693464343A342034253479
:102150002E3432346634203425342534003454345B
:1021600065346D3470343A34203425342E343234AE
:1021700066342034433400344534723472346F345E
:1021800072342134203443346834653463346B341E
:02219000003419
:10219A008312A0006F18F92820088316E3007C0830
:1021AA00E4006130E5006230E6006330E700643045
:1021BA00E8000630F000E3300A128A11B1270A1645
:1021CA008A1171088312A2007008A10021088316DF
:1021DA00E900831222088316EA00EB01E3300A16AB
:1021EA008A15912283126F1420088316D1007C0865
:1021FA00D200080003104F0D500DD6005608031DDB
:10220A000F290030D0000030CF000030CE0000305F
:10221A00CD0008004D08D1004E08D2004F08D30067
:10222A005008D4001F300310D40CD30CD20CD10C9C
:10223A00FF3E031D18295108D500CF17FF30CD05E1
:10224A00FF30CE05FF30CF050030D0059630D602DC
:10225A00D61F44295608803A973E031C06290130A6
:10226A000310D00CCF0CCE0CCD0CFF3E031D35292C
:10227A000130FF007F08D607031957293429203077
:10228A005602031806295608031957290130D100A6
:10229A000310CD0DCE0DCF0DD00DD10B4D29013030
:1022AA00D6024829550803190800CD09CE09CF09D5
:1022BA00D009CD0A0319CE0A0319CF0A0319D00A85
:1022CA000800831688010811881100300A168A1539
:1022DA0088230A168A119C3083160317B700D63052
:1022EA00B600B60B7629B70B7629000003308316A1
:1022FA000317B7009730B600B60B8129B70B8129AF
:10230A0003300A168A1539220A168A111A308316D8
:10231A000317B700F730B600B60B9129B70B91290E
:10232A00962903300A168A1539220A168A11C730E5
:10233A0083160317B600B60BA02903300A168A15AE
:10234A0039220A168A1102300A168A1539220A1601
:10235A008A1102300A168A1539220A168A11083099
:10236A000A168A1539220A168A1100300A168A159F
:10237A0039220A168A110C300A168A1539220A16C7
:10238A008A1100300A168A1539220A168A1106306D
:10239A000A168A153922080073080319D9297208FE
:1023AA0071047004031DEC290030F0000030F100C4
:1023BA000030F20008000130FF007F08F307013007
:1023CA000310F20CF10CF00CFF3E031DE529FE3060
:1023DA0072050319072AE0290130FF007F08F30775
:1023EA000130F007003003180130F10700300318FC
:1023FA000130F20701300310F20CF10CF00CFF3E31
:10240A00031D002AFF30720503191A2AF129023026
:10241A007302031C1C2A0130F30201300310F00D71
:10242A00F10DF20DFF3E031D132AF11F0C2A73183A
:10243A00242AFF30F0057F30F105FF30F205031042
:10244A00F30C7308F500F601F70110300310F50DCF
:10245A00F60DF70DFF3E031D2B2A7508F0047608CA
:10246A00F1047708F204740803190800F217080047
:10247A004708CA004608C9000830FF004A0DCA0CBE
:10248A00C90CFF0B432A4908F8004A08F9000A1642
:10249A008A151C220A168A117808CD007908CE00FE
:1024AA007A08CF004608C039D00050080319A52A77
:1024BA005008C90006300310C90CFF3E031D602AEC
:1024CA004908D0005008C900CA01CB01CC014C0808
:1024DA00F3004B08F2004A08F1004908F000013005
:1024EA000A168A11B6230A168A1173088312A700DC
:1024FA007208A6007108A5007008A4003E30A30067
:10250A008030A2000030A1000030A0000A128A1513
:10251A00F9210A168A112108BA002208BB002308E9
:10252A00BC004D08BD004E08BE004F08BF000A1689
:10253A008A1105273A08CD003B08CE003C08CF0097
:10254A004D08C6004E08C7004F08C80008005B08BF
:10255A00DF005C08E0005D08E1000310600D610D1A
:10256A00E7006708031DC22A0030DE000030DD00E4
:10257A000030DC000030DB0008005B08DF005C088C
:10258A00E0005D08E10017300310E10CE00CDF0CFD
:10259A00FF3E031DC92A5F08E200DC17FF30DB0596
:1025AA00FF30DC050030DD055B08E3005C08E40071
:1025BA005D08E500E6018E30E702E71FF92A6708A1
:1025CA00803A8F3E031CB92A01300310E60CE50C51
:1025DA00E40CE30CFF3E031DEA2A0130FF007F08EA
:1025EA00E70703190C2BE92A183067020318B92ADE
:1025FA00670803190C2B0130DF000310E30DE40D0B
:10260A00E50DE60DDF0B022B0130E702FD2A620819
:10261A0003191A2BE309E409E509E609E30A031990
:10262A00E40A0319E50A0319E60A6608DE006508E2
:10263A00DD006408DC006308DB0008000030700578
:10264A00F80000307105F90080307205FA007F3019
:10265A007305FB007B087A0479047804031D3D2B7B
:10266A000030F3000030F2000030F1000030F000DA
:10267A0000307405F80000307505F90080307605E1
:10268A00FA007F307705FB007B087A047904780426
:10269A00031D572B0030F7000030F6000030F5001C
:1026AA000030F400F31F7D2B0030F8000030F900F1
:1026BA000030FA008030FB007008F8027108031C31
:1026CA00710F682B692BF9027208031C720F6E2BAB
:1026DA006F2BFA027308031C730F742B752BFB0202
:1026EA007B08F3007A08F2007908F1007808F00014
:1026FA00F71FA32B0030F8000030F9000030FA0071
:10270A008030FB007408F8027508031C750F8E2BC5
:10271A008F2BF9027608031C760F942B952BFA025D
:10272A007708031C770F9A2B9B2BFB027B08F70079
:10273A007A08F6007908F5007808F4008030F30684
:10274A008030F70677087302031D080076087202C4
:10275A00031D080075087102031D08007408700241
:10276A000800F8007808031DF31FCB2B7009FA0044
:10277A007109FB007209FC007309FD00FA0A0319CA
:10278A00FB0A0319FC0A0319FD0AD32B7308FD007F
:10279A007208FC007108FB007008FA0073087204E2
:1027AA0071047004031DE22B0030F3000030F200C4
:1027BA000030F1000030F00008009630F900FE30D9
:1027CA007D050319112C0130FF007F08F90701303C
:1027DA000310FD0CFC0CFB0CFA0CFF3E031DED2B49
:1027EA00E42B0130FF007F08F9070130FA070030B7
:1027FA0003180130FB07003003180130FC070030D2
:10280A0003180130FD0701300310FD0CFC0CFB0C12
:10281A00FA0CFF3E031D092CFF307D050319252CF8
:10282A00F62B02307902031C272C0130F902013001
:10283A00F4000310FA0DFB0DFC0DFD0DF40B1E2C1C
:10284A00FC1F162C7918312CFF30FA05FF30FB05D6
:10285A007F30FC05FF30FD050310F90C7908F40000
:10286A00F501F601F70118300310F40DF50DF60D18
:10287A00F70DFF3E031D392C7408FA047508FB0492
:10288A007608FC047708FD047808031DF31F4E2C14
:10289A00FD177D08F3007C08F2007B08F1007A0836
:1028AA00F00008000310720D730D8312A5002508AD
:1028BA00031D682C0030F3000030F2000030F100F4
:1028CA000030F00008000310760D770DA4002408EC
:1028DA0003195F2CF217FF30F005FF30F105FF30C6
:1028EA00F2050030F305F617FF30F405FF30F50561
:1028FA00FF30F6050030F7050030A3000030A200D3
:10290A000030A1000030A0007F30A502A0302407CB
:10291A00F8007808A5022030A4000130F80003105E
:10292A00A00DA10DA20DA30DF80B942C770873022C
:10293A00031DA92C76087202031DA92C75087102C1
:10294A00031DA92C74087002031CBA2C7408F00227
:10295A007508031C750FF1027608031C760FF20244
:10296A007708031C770FF30220140130F8000310D4
:10297A00F00DF10DF20DF30DF80BBC2C0130A40291
:10298A00031D922CA51FDE2C2508803A9F3E031CAE
:10299A005F2C01300310A30CA20CA10CA00CFF3E6B
:1029AA00031DCF2C0130FF007F08A5070319F12C66
:1029BA00CE2C2030250203185F2C25080319F12C90
:1029CA000130F8000310A00DA10DA20DA30DF80B04
:1029DA00E72C0130A502E22C2308F3002208F200BA
:1029EA002108F1002008F00008007008F6007108BC
:1029FA00F7007208F8000310770D780D831203139D
:102A0A00A5002508031D122D0030F3000030F20046
:102A1A000030F1000030F00008007308F600740876
:102A2A00F7007508F8000310770D780DA400240844
:102A3A000319092DF117FF30F005FF30F1050030B9
:102A4A00F205F417FF30F305FF30F4050030F50501
:102A5A000030A3000030A2000030A1000030A00026
:102A6A007F30A50298302407F6007608A5021830B0
:102A7A00A4000130F6000310A00DA10DA20DA30DB4
:102A8A00F60B402D75087202031D512D7408710250
:102A9A00031D512D73087002031C5E2D7308F0028A
:102AAA007408031C740FF1027508031C750AF202FC
:102ABA00201401300310F00DF10DF20DFF3E031D3D
:102ACA005F2D0130A402031D3E2DA51F812D25086F
:102ADA00803A973E031C092D01300310A30CA20C67
:102AEA00A10CA00CFF3E031D722D0130FF007F08D0
:102AFA00A5070319942D712D183025020318092DE5
:102B0A0025080319942D0130F6000310A00DA10D1C
:102B1A00A20DA30DF60B8A2D0130A502852D2308DF
:102B2A00F3002208F2002108F1002008F000080052
:102B3A004C08D2004D08D3004E08D4000310530DA0
:102B4A00540DD5005508031DB12D0030CC000030BE
:102B5A00CD000030CE0008004F08D2005008D30044
:102B6A005108D4000310530D540DDA005A08031DFE
:102B7A00C52D0030CC000030CD000030CE0008005A
:102B8A005A087B3EFF007F08D5074E08DA00510835
:102B9A00FF007F08DA068030FF007F08DA05CD17CC
:102BAA00D017FF30CF05FF30D0050030D1050030F7
:102BBA00D6000030D7000030D8000730D9004C1CAE
:102BCA00F42D4F08D607500803110318500A031DA5
:102BDA00D707510803110318510A031DD8070130FA
:102BEA000310CE0CCD0CCC0CFF3E031DF52D01308D
:102BFA000310CF0DD00DD10DFF3E031DFD2D013069
:102C0A00D902031DE42D0930D9004C1C1A2E4F0895
:102C1A00D607500803110318500A031DD707510895
:102C2A0003110318510A031DD80701300310CE0CF3
:102C3A00CD0CCC0CFF3E031D1B2E01300310D80C0B
:102C4A00D70CD60CFF3E031D232E0130D902031DDB
:102C5A000A2E5608F0005708F1005808F2005508E5
:102C6A00F3005A08F4000A168A11D1217008CC0020
:102C7A007108CD007208CE0008000B1D812E0630A7
:102C8A00831281000130FF007F088316D90765305F
:102C9A005906031D682ED9010030A900C830AA00C0
:102CAA004230AB006C08AC006D08AD006E08AE0097
:102CBA004E08AF004F08B0005008B1000A168A1536
:102CCA0095240A168A1101308316D5070318D60AE5
:102CDA000030D607E9305506033003195606031D9E
:102CEA00802ED501D6013330FC0031300A168A1104
:102CFA00CD200A168A110B1183128C1EF92E083068
:102D0A00F1000030F200DA300A168A15D8240A16C1
:102D1A008A11710872040319F92EDA300A168A1513
:102D2A00B5230A168A11031CE32E83165D08C50013
:102D3A00C6014508C600C5015C0845078312C600DE
:102D4A00003003180130831646078312C7000A169B
:102D5A008A113D220A168A1146088316CE0083126A
:102D6A0047088316CF00831248088316D0005F08ED
:102D7A00C500C6014508C600C5015E08450783129D
:102D8A00E800003003180130831646078312E90071
:102D9A000A168A151C240A168A1168088316CB009B
:102DAA00831269088316CC0083126A088316CD0041
:102DBA000A168A159B270A168A11F92E0A168A15E7
:102DCA007F210A168A11F401F40A01300A128A15BF
:102DDA0003200A168A11AD30F6008030F7000A1671
:102DEA008A1558240A168A1183164A08FF004908C8
:102DFA008A0048088400470E8300FE0E7E0E0900F2
:102E0A003A08C0003B08C1003C08C2000310410D4B
:102E1A00420DC5003D08C0003E08C1003F08C2007F
:102E2A000310410D420DC40045080319282F440818
:102E3A00450203182F2F4408C0004508C002193064
:102E4A004002031C2F2F3D08BA003E08BB003F0872
:102E5A00BC00080044080319080045084402031886
:102E6A003E2F4508C0004408C0021930400203182A
:102E7A0008000630C300BC1BC317BF1B4317BB1790
:102E8A00FF30BA05FF30BB050030BC05BE17FF3066
:102E9A00BD05FF30BE050030BF05440845020318D2
:102EAA007C2F01300310BD0DBE0DBF0DFF3E031D6B
:102EBA00572F0130C402440845060319772F013001
:102ECA00C302430807390319772F562F013003101D
:102EDA00BC0CBB0CBA0CFF3E031D6C2F0130FF006B
:102EEA007F08C507450844060319A52F6B2F450817
:102EFA0044020318A52F01300310BA0DBB0DBC0DF7
:102F0A00FF3E031D812F0130C502440845060319FF
:102F1A00A12F0130C302430807390319A12F802FBB
:102F2A0001300310BF0CBE0CBD0CFF3E031D962FD3
:102F3A000130FF007F08C40745084406031D952F8A
:102F4A00C31FB72FFF30BA06FF30BB06FF30BC06DF
:102F5A000130BA07003003180130BB0700300318EC
:102F6A000130BC07431FC92FFF30BD06FF30BE0624
:102F7A00FF30BF060130BD07003003180130BE071D
:102F8A00003003180130BF07C3013A08BD073B08E8
:102F9A00031103183B0A031DBE073C08031103185B
:102FAA003C0A031DBF07BF1FEC2FFF30BD06FF30D1
:102FBA00BE06FF30BF060130BD07003003180130DE
:102FCA00BE07003003180130BF07C301C30A3D081A
:102FDA00F0003E08F1003F08F2004508F3004308FC
:102FEA00F4000A168A11D1217008BA007108BB00D0
:062FFA007208BC00080093
:103292008316071183129715171508007C308316C1
:1032A20092008312921412140800F0008316981CE4
:1032B20057297008831299000800981C6229181275
:1032C20018161A08F00070080800031386108312FB
:1032D20086100A168A15B821080064008001840A43
:1032E20004060319003404066F297308720471047A
:1032F2007004031908008030F306080000300A1633
:103302008A15CE210A168A1501300A168A15CE218F
:103312000800F100F0013A307102031896293030AA
:103322007102031C9629F001F00A700C0800881043
:1033320008118312881008110A168A1549210A16E3
:103342008A150A168A154F21080083120313810178
:1033520083168112811103173508B3003408B200B5
:103362000A168A158D260B118B168B1708008316E9
:1033720007178717831298178316181218138312C8
:103382001813831698168312181683161815103000
:1033920099008C160B178B170800F3008312081183
:1033A20073080A168A15E5210A168A15881503304C
:1033B200F2009730F100F10BDC29F20BDC29E12954
:1033C2008312031388110800F000701CEC29831289
:1033D20003130816EF29831203130812F01CF329B2
:1033E2008816F4298812701DF8290817F92908137C
:1033F200F01DFD29881708008813080048084704B3
:1034020046040319062A8030C8064908BA004A0849
:10341200BB004B08BC004608BD004708BE00480878
:10342200BF000A168A1105273A08C6003B08C700E2
:103432003C08C8000800FB01F91F262AF809F9090F
:10344200F80A0319F90AFB01FB0A7808F000790867
:10345200F100F2018E30F3007B08F4000A168A11A3
:10346200D1217008F8007108F9007208FA0008000A
:1034720083160317B500831203130811831603176B
:1034820035080A168A1588230A168A158815033004
:1034920083160317B4009730B300B30B4E2AB40B54
:1034A2004E2A83120313881108000630810010305F
:1034B20083160317B4000030B5000A168A15A62138
:1034C2000A168A150A168A1566210A168A150A1616
:1034D2008A1598210A168A150A168A1166210A1671
:1034E2008A15722A8030E3066708CF006608CE008C
:1034F2006508CD006408CC006308D3006208D200DE
:103502006108D1006008D0000A128A11B4254F0860
:10351200E3004E08E2004D08E1004C08E00008001C
:10352200F400F201F30172087407F10071088400DB
:10353200831300080319080072087407F100710868
:10354200840000080A168A1556210A168A150130C7
:10355200F2070318F30A0030F307942AF300083045
:10356200F400F5017308F10007300310F10CFF3E7F
:10357200031DB62A7508F20072077104F5000310E4
:10358200F30D70087502031CC82A7008F502013099
:10359200F402031DB32A75080800F401F501701C3A
:1035A200D82A7208F4070318F50A7308F5070130E0
:1035B2000310F20DF30DFF3E031DD92A0130031053
:1035C200F10CF00CFF3E031DE02A70087104031D8C
:1035D200D02A7508F1007408F0000800F700F9011C
:1035E200760803190E2BF801F80AF61BFF2A0310BE
:1035F200F60D0130FF007F08F807F62A0310F90DD7
:1036020076087702031C092B7608F7027914031057
:10361200F60C0130F802031DFF2A79080800F800B1
:10362200F401F5017008F200F3017208F600730864
:10363200F700781C222B7608F4070318F50A77089E
:10364200F50701300310F60DF70DFF3E031D232B86
:103652000310F80C7808031D1A2B7508F100740882
:10366200F000080001307102F530031970020318EE
:10367200080070080139F200F20E17087206EF39DD
:103682007206970070080239F200F20EF20D170866
:103692007206DF39720697007108F3007008F200B3
:1036A2000310F30CF20C0310F30CF20C72089500E9
:1036B200121508006F18080083165108E3008312E0
:1036C200220880388316E400E5018312200883165D
:1036D200E600831221088316E700E8010630F000B5
:1036E200E3300A128A11B1270A168A157108FD0001
:1036F2007008FC007C088316E9007D08EA00EB01F3
:10370200E3300A168A15912283126F1408000317F8
:10371200B200321C902B831203130816932B8312D0
:103722000313081283160317B21C9B2B8312031375
:1037320088169E2B83120313881283160317321DD9
:10374200A62B831203130817A92B83120313081342
:1037520083160317B21DB12B8312031388170800B7
:103762008312031388130800A900290884000008A3
:1037720083165106031DBF2BC12B861403100800AC
:103782008312290A8400801BBE2B29080A168A1577
:10379200E5230A168A157D08A8007C08A7002703DE
:1037A200031D2803031DE32B2808A1002708A000FE
:1037B200290A84000008A2000A168A155B230A1649
:1037C2008A15BF2B03140800A600260A84000008ED
:1037D200831652060319F12B8312A401A40AF32BB8
:1037E2008312A4010630F00026080A128A11B127BA
:1037F2000A168A1571088312A3007008A200220813
:10380200A0002308A1002608063E840083130008B6
:103812002006031D132C2608073E840000082106FB
:103822000319162CA501A50A172CA5012508FD00D0
:103832002408FC0008003D30A3009D30A200213086
:10384200A100FF30A0006808F0006908F100F20151
:10385200F30100300A168A11B6230A168A15730874
:103862008312A7007208A6007108A5007008A400C0
:103872000A128A15F9210A168A152308E30022087A
:10388200E2002108E1002008E0004430E7000D30AA
:10389200E6004630E5006630E4000A168A15732217
:1038A2006108E8006208E9006308EA000800FB0119
:1038B200FC017B087607F9007708F8000318F80A7C
:1038C200FB1BF8037808FA007A0883120313FF003F
:1038D200790884000A168A1100200A168A15003A0D
:1038E200031908007B087607F9007708F800031827
:1038F200F80AFB1BF8037808FA007A08831203130C
:10390200FF00790884000A168A1100200A168A1517
:103912000A168A15AD250A168A150130FB07031807
:10392200FC0A0030FC075A2C2908A0002A08A10032
:103932002B08A2002C08A3002D08A4002E08A50025
:103942002F08A6003008A7003108A8000A168A1519
:103952001D250A168A1521088312EB0083162008FA
:103962008312EA0001306B02F53003196A02031C6C
:10397200BF2CF430EA000130EB00C82C00306B029F
:10398200463003196A020318C82CEA01EB016A08DF
:103992006B04031DCE2C8810CF2C881408116B08E1
:1039A200F1006A08F0000A168A1533230800F500B0
:1039B200981CDD2C181218167108FF3EF3007208CD
:1039C2000318013EFF3EF4006E087406031DEB2C43
:1039D2006D087306031D0A2D6D087507F300730841
:1039E20084000A168A155E21831380000130ED07D8
:1039F2000318EE0A0030EE076D087507F30073082E
:103A020084008001ED01EE010130F1000030F2008E
:103A120008006D087507F300730884000A168A15FA
:103A22005E21831380000130ED070318EE0A003097
:103A3200EE07F101F201080023088312C900831680
:103A420024088312CA00831625088312CB0083162A
:103A520026088312C600831627088312C70083161E
:103A620028088312C8000A168A15FF210A168A1529
:103A72004608CF004708D0004808D1008316200826
:103A82008312CC00831621088312CD0083162208EC
:103A92008312CE000A168A119D250A168A154C0831
:103AA200DB004D08DC004E08DD000A168A11AC224C
:103AB2005C08E9005B08E80069088316A10083122C
:103AC20068088316A000080000307005F800003076
:103AD2007105F90080307205FA007F307305FB0032
:103AE2007B087A0479047804031D7F2D0030F300EB
:103AF2000030F2000030F1000030F00000307405B8
:103B0200F80000307505F90080307605FA007F3044
:103B12007705FB007B087A0479047804031D992D4C
:103B22000030F7000030F6000030F5000030F400FD
:103B320077087306031DA72D76087206031DA72DAD
:103B420075087106031DA72D740870060319AB2DA5
:103B52000310080003140800F50075080F39F3007C
:103B62007508F039F40008157408F10004300310E8
:103B7200F10CFF3E031DB82D71080A168A15E521C6
:103B82000A168A1588150330F2009730F100F10BFE
:103B9200C82DF20BC82DCD2D8312031388110330CB
:103BA200F2009730F100F10BD42DF20BD42DD92D68
:103BB20073080A168A15E5210A168A158815033034
:103BC200F2009730F100F10BE42DF20BE42DE92D18
:103BD2008312031388110330F2009730F100F10BC6
:103BE200F02DF20BF02DF52D0800F501F31F002E3C
:103BF200F209F309F20A0319F30AF501F50AF11FB2
:103C0200072EF009F109F00A0319F10A700871048C
:103C12000319342EF401F40AF11B1B2E0130031098
:103C2200F00DF10DFF3E031D102E0130FF007F0845
:103C3200F4070D2E71087302031D212E7008720203
:103C4200031C292E7008F2027108031CF303F3020D
:103C520001300310F10CF00CFF3E031D2A2E01303F
:103C6200F402031D1B2E750803193C2EF209F309F9
:103C7200F20A0319F30A7308F1007208F00008004F
:103C820073087204710470040319842EF901F90A8D
:103C9200F31B592E0130F8000310F00DF10DF20D57
:103CA200F30DF80B4D2E0130FF007F08F907492E66
:103CB20073087702031D672E72087602031D672EB2
:103CC20071087502031D672E70087402031C772E9B
:103CD2007008F4027108031C710FF5027208031CCC
:103CE200720FF6027308031C730FF7020130031000
:103CF200F30CF20CF10CF00CFF3E031D782E013098
:103D0200F902031D592E7708F3007608F2007508B0
:103D1200F1007408F0000800BC2E03138115011194
:103D22008110011008000313011181100110080015
:103D320003130111811001140800031301118114EE
:103D42000110080003130111811401140800031368
:103D520001158110011008000313011581100114CF
:103D62000800031301158114011008000313011543
:103D72008114011408003308003A0319C42E013AD1
:103D82000319DE2EE32E3208013A03198E2E033A6E
:103D92000319942E063A0319992E0C3A03199E2EF2
:103DA200183A0319A32E303A0319A82E603A0319C0
:103DB200AD2EC03A0319B22EE32E3208003A03198F
:103DC200B72EE32E0800FB01F71FEE2EF609F709C6
:103DD200F60A0319F70AFB01FB0AF91FF92EF80983
:103DE200F909F80A0319F90A0130FF007F08FB06F6
:103DF200FC01FD01760877040319302FFA01FA0A53
:103E0200F71B0F2F01300310F60DF70DFF3E031DB8
:103E1200042F0130FF007F08FA07012F0130031041
:103E2200FC0DFD0DFF3E031D102F77087902031DC7
:103E32001C2F76087802031C252F7608F8027708D3
:103E4200031CF903F9027C1401300310F70CF60C81
:103E5200FF3E031D262F0130FA02031D0F2F7B08A0
:103E62000319382FFC09FD09FC0A0319FD0A7D0814
:103E7200F7007C08F60008000030FC000030FB0070
:103E82000030FA000030F900730872047104700403
:103E92000319922FFD01FD0AF31B5D2F0130F8007B
:103EA2000310F00DF10DF20DF30DF80B512F01304F
:103EB200FF007F08FD074D2F0130F8000310F90DB8
:103EC200FA0DFB0DFC0DF80B5F2F73087702031D33
:103ED200742F72087602031D742F71087502031D78
:103EE200742F70087402031C852F7008F402710885
:103EF200031C710FF5027208031C720FF60273089D
:103F0200031C730FF702791401300310F30CF20C47
:103F1200F10CF00CFF3E031D862F0130FD02031D44
:103F22005D2F7C08F3007B08F2007A08F100790823
:103F3200F00008000A168A157F210A168A15A03099
:103F4200E80083165008C4004F08C3004E08C200A0
:103F5200C10144088312EC00831643088312EB006C
:103F6200831642088312EA00831641088312E9008D
:103F7200A1300A128A1140200A168A159130831242
:103F8200E80083164D08C4004C08C3004B08C20069
:103F9200C10144088312EC00831643088312EB002C
:103FA200831642088312EA00831641088312E9004D
:103FB20090300A128A1140200A168A15F401F40A76
:103FC20001300A128A1503200A168A15A130F6005A
:103FD2000130F7000A168A1558240A168A15F401C8
:103FE200F40A02300A128A1503200A168A15903042
:103FF200F6000130F7000A168A1558240800FF3F20
:06400200FF3FFF3FFF3FFE
:02400E00FA3F77
:00000001FF
